{
  "address": "0x79295ebe9CA600Ec831eFa892768F6227ca0b335",
  "abi": [
    {
      "inputs": [
        {
          "internalType": "address",
          "name": "_token",
          "type": "address"
        }
      ],
      "stateMutability": "nonpayable",
      "type": "constructor"
    },
    {
      "inputs": [],
      "name": "greeting",
      "outputs": [
        {
          "internalType": "string",
          "name": "",
          "type": "string"
        }
      ],
      "stateMutability": "view",
      "type": "function"
    },
    {
      "inputs": [],
      "name": "token",
      "outputs": [
        {
          "internalType": "contract IERC20",
          "name": "",
          "type": "address"
        }
      ],
      "stateMutability": "view",
      "type": "function"
    },
    {
      "inputs": [
        {
          "internalType": "bytes32",
          "name": "_transferId",
          "type": "bytes32"
        },
        {
          "internalType": "uint256",
          "name": "_amount",
          "type": "uint256"
        },
        {
          "internalType": "address",
          "name": "_asset",
          "type": "address"
        },
        {
          "internalType": "address",
          "name": "_originSender",
          "type": "address"
        },
        {
          "internalType": "uint32",
          "name": "_origin",
          "type": "uint32"
        },
        {
          "internalType": "bytes",
          "name": "_callData",
          "type": "bytes"
        }
      ],
      "name": "xReceive",
      "outputs": [
        {
          "internalType": "bytes",
          "name": "",
          "type": "bytes"
        }
      ],
      "stateMutability": "nonpayable",
      "type": "function"
    }
  ],
  "transactionHash": "0x5ebc2541484c81e6f0ffbfaf9a13acd39096888df1d9a7d7f72dd4e5af80f1fc",
  "args": [
    "0xeDb95D8037f769B72AAab41deeC92903A98C9E16"
  ],
  "numDeployments": 1,
  "solcInputHash": "130c9210192da8bfe48e9681df07324d",
  "bytecode": "0x60a060405234801561001057600080fd5b5060405161068f38038061068f83398101604081905261002f91610040565b6001600160a01b0316608052610070565b60006020828403121561005257600080fd5b81516001600160a01b038116811461006957600080fd5b9392505050565b6080516105fe610091600039600081816069015261014801526105fe6000f3fe608060405234801561001057600080fd5b50600436106100415760003560e01c8063ef690cc014610046578063fc0c546a14610064578063fd614f41146100a3575b600080fd5b61004e6100b6565b60405161005b9190610299565b60405180910390f35b61008b7f000000000000000000000000000000000000000000000000000000000000000081565b6040516001600160a01b03909116815260200161005b565b61004e6100b136600461033c565b610144565b600080546100c39061040a565b80601f01602080910402602001604051908101604052809291908181526020018280546100ef9061040a565b801561013c5780601f106101115761010080835404028352916020019161013c565b820191906000526020600020905b81548152906001019060200180831161011f57829003601f168201915b505050505081565b60607f00000000000000000000000000000000000000000000000000000000000000006001600160a01b0316856001600160a01b0316146101c35760405162461bcd60e51b815260206004820152601460248201527315dc9bdb99c8185cdcd95d081c9958d95a5d995960621b60448201526064015b60405180910390fd5b6000861161020d5760405162461bcd60e51b81526020600482015260176024820152764d75737420706179206174206c6561737420312077656960481b60448201526064016101ba565b6000828060200190518101906102239190610444565b905061022e81610239565b509695505050505050565b60006102458282610509565b5050565b60005b8381101561026457818101518382015260200161024c565b50506000910152565b60008151808452610285816020860160208601610249565b601f01601f19169290920160200192915050565b6020815260006102ac602083018461026d565b9392505050565b80356001600160a01b03811681146102ca57600080fd5b919050565b634e487b7160e01b600052604160045260246000fd5b604051601f8201601f191681016001600160401b038111828210171561030d5761030d6102cf565b604052919050565b60006001600160401b0382111561032e5761032e6102cf565b50601f01601f191660200190565b60008060008060008060c0878903121561035557600080fd5b863595506020870135945061036c604088016102b3565b935061037a606088016102b3565b9250608087013563ffffffff8116811461039357600080fd5b915060a08701356001600160401b038111156103ae57600080fd5b8701601f810189136103bf57600080fd5b80356103d26103cd82610315565b6102e5565b8181528a60208385010111156103e757600080fd5b816020840160208301376000602083830101528093505050509295509295509295565b600181811c9082168061041e57607f821691505b60208210810361043e57634e487b7160e01b600052602260045260246000fd5b50919050565b60006020828403121561045657600080fd5b81516001600160401b0381111561046c57600080fd5b8201601f8101841361047d57600080fd5b805161048b6103cd82610315565b8181528560208385010111156104a057600080fd5b6104b1826020830160208601610249565b95945050505050565b601f82111561050457600081815260208120601f850160051c810160208610156104e15750805b601f850160051c820191505b81811015610500578281556001016104ed565b5050505b505050565b81516001600160401b03811115610522576105226102cf565b61053681610530845461040a565b846104ba565b602080601f83116001811461056b57600084156105535750858301515b600019600386901b1c1916600185901b178555610500565b600085815260208120601f198616915b8281101561059a5788860151825594840194600190910190840161057b565b50858210156105b85787850151600019600388901b60f8161c191681555b5050505050600190811b0190555056fea2646970667358221220d1a18808b2f5abf1cd078c6fad375029fb49877bbad318be3e73c31b1ad6b92064736f6c63430008110033",
  "devdoc": {
    "kind": "dev",
    "methods": {
      "xReceive(bytes32,uint256,address,address,uint32,bytes)": {
        "details": "The Connext bridge contract will call this function."
      }
    },
    "title": "DestinationGreeter",
    "version": 1
  },
  "userdoc": {
    "kind": "user",
    "methods": {
      "xReceive(bytes32,uint256,address,address,uint32,bytes)": {
        "notice": "The receiver function as required by the IXReceiver interface."
      }
    },
    "notice": "Example destination contract that stores a greeting.",
    "version": 1
  },
  "storageLayout": {
    "storage": [
      {
        "astId": 108,
        "contract": "contracts/DestinationGreeter.sol:DestinationGreeter",
        "label": "greeting",
        "offset": 0,
        "slot": "0",
        "type": "t_string_storage"
      }
    ],
    "types": {
      "t_string_storage": {
        "encoding": "bytes",
        "label": "string",
        "numberOfBytes": "32"
      }
    }
  }
}